:1000000019C033C032C031C030C02FC02EC02DC087
:100010002CC02BC02AC029C028C027C026C025C09C
:1000200024C023C061C021C020C01FC01EC01DC08D
:100030001CC01BC011241FBECFEFD2E0DEBFCDBF5E
:1000400011E0A0E0B1E0EAEFF1E002C005900D920E
:10005000A033B107D9F721E0A0E3B1E001C01D92C0
:10006000A539B207E1F774D0C6C0CACF1092C50057
:1000700083E38093C40086E08093C20088E9809384
:10008000C100089582E084B9F1DF789408959C015D
:1000900080E0F901E80FF11D9081911101C00895F0
:1000A0009091C00095FFFCCF90819093C6008F5F28
:1000B000F0CFCF93DF93CDB7DEB728970FB6F89484
:1000C000DEBF0FBECDBF4AE0BE016F5F7F4F60D085
:1000D000CE010196DCDF28960FB6F894DEBF0FBE86
:1000E000CDBFDF91CF9108951F920F920FB60F925F
:1000F00011242F933F934F935F936F937F938F932D
:100100009F93AF93BF93EF93FF938091C60080932B
:1001100031018091300191E0980F9093300190E08F
:10012000C8DF80E091E0B3DF81E391E0B0DFFF91D1
:10013000EF91BF91AF919F918F917F916F915F915F
:100140004F913F912F910F900FBE0F901F901895D8
:1001500014B898DF80E090E02FEF39EF40E02150B5
:1001600030404040E1F700C00000189B0EC0892BD2
:1001700051F48091C6008093310186E291E087DFDF
:1001800081E391E084DF81E001C080E090E0E4CF92
:10019000BB274A3031F4992322F4BDE29095819532
:1001A0009F4F01C0BB27FB015527AA27880F991F26
:1001B000AA1FA41710F0A41B83955051B9F7A05D96
:1001C000AA3308F0A95DA193009779F7B111B19313
:1001D0001192CB0100C0DC01FC01672F71917723E4
:1001E000E1F7329704C07C916D9370836291AE17F2
:0A01F000BF07C8F30895F894FFCF8D
:1001FA002D4772657474696E67732066726F6D201D
:10020A004D43552049206A75737420726563656988
:10021A007665643A20005249434B524F4C4C0000D9
:00000001FF
