:1000000019C020C01FC01EC01DC01CC01BC01AC00C
:1000100019C018C017C016C015C014C013C012C034
:1000200011C010C00FC00EC00DC00CC00BC00AC064
:1000300009C008C011241FBECFEFD2E0DEBFCDBF84
:1000400002D039C0DDCF17B88FEF8AB91BB884E072
:1000500090E061E070E02FEF30E742E02150304067
:100060004040E1F700C00000309B06C0873091059A
:1000700014F086E090E00196319B06C01816190630
:1000800014F081E090E001974BB19B01082E01C074
:10009000220F0A94EAF750E0082E02C055954795C2
:1000A0000A94E2F73BB140FF04C0209523232BB90B
:0A00B000D2CF232BFCCFF894FFCF32
:00000001FF
