:100000000C9434020C9451020C9451020C94510241
:100010000C9451020C9451020C9451020C94510214
:100020000C9451020C9451020C9476020C945102DF
:100030000C9451020C9451020C9451020C945102F4
:100040000C9451020C9451020C9453020C945102E2
:100050000C9451020C9451020C9451020C945102D4
:100060000C9451020C945102323233333334343411
:100070003435353536363637373738383838393914
:10008000393A3A3A3B3B3B3B3C3C3C3D3D3D3E3EB6
:100090003E3E3F3F3F40404041414141424242435A
:1000A0004343434444444545454546464647474700
:1000B00047484848494949494A4A4A4A4B4B4B4BA9
:1000C0004C4C4C4D4D4D4D4E4E4E4E4F4F4F4F5054
:1000D0005050505151515152525252525353535306
:1000E00054545454555555555556565656565757BB
:1000F000575757585858585859595959595A5A5A78
:100100005A5A5B5B5B5B5B5B5C5C5C5C5C5C5D5D37
:100110005D5D5D5D5E5E5E5E5E5E5E5F5F5F5F5FFE
:100120005F5F5F60606060606060606161616161CD
:1001300061616161616262626262626262626262A4
:10014000636363636363636363636363636363637F
:100150006364646464646464646464646464646460
:10016000646464646464646464646464646464644F
:100170006464646464646464646464646464646340
:10018000636363636363636363636363636363633F
:100190006262626262626262626262626161616143
:1001A00061616161616160606060606060605F5F4B
:1001B0005F5F5F5F5F5E5E5E5E5E5E5E5D5D5D5D5E
:1001C0005D5D5D5C5C5C5C5C5C5B5B5B5B5B5A5A75
:1001D0005A5A5A5A59595959595858585858575794
:1001E00057575756565656555555555554545454B9
:1001F00053535353535252525251515151505050E4
:10020000504F4F4F4F4E4E4E4E4D4D4D4D4C4C4C12
:100210004C4B4B4B4B4A4A4A494949494848484844
:10022000474747464646464545454444444443437C
:1002300043424242424141414040403F3F3F3F3EB6
:100240003E3E3D3D3D3D3C3C3C3B3B3B3A3A3A39F2
:10025000393939383838373737363636363535352F
:10026000343434333333323232323131313030306E
:100270002F2F2F2E2E2E2E2D2D2D2C2C2C2B2B2BAD
:100280002B2A2A2A292929282828272727272626EA
:100290002625252525242424232323222222222126
:1002A0002121202020201F1F1F1E1E1E1E1D1D1D60
:1002B0001C1C1C1C1B1B1B1B1A1A1A191919191898
:1002C00018181817171717161616161515151514CA
:1002D00014141413131313121212121111111111F9
:1002E000101010100F0F0F0F0F0E0E0E0E0D0D0D24
:1002F0000D0D0C0C0C0C0C0B0B0B0B0B0A0A0A0A49
:100300000A0A090909090908080808080807070767
:10031000070707070606060606060605050505057E
:100320000505040404040404040403030303030391
:100330000303030302020202020202020202020299
:10034000010101010101010101010101010101019D
:10035000010000000000000000000000000000009C
:10036000000000000000000000000000000000008D
:10037000000000000000000000000000000000017C
:10038000010101010101010101010101010101015D
:100390000202020202020202020202030303030338
:1003A000030303030304040404040404040505050F
:1003B00005050505050606060606060607070707DE
:1003C00007070808080808080909090909090A0AA5
:1003D0000A0A0A0B0B0B0B0B0C0C0C0C0C0D0D0D65
:1003E0000D0D0E0E0E0E0E0F0F0F0F0F1010101022
:1003F00011111111121212121213131313141414D7
:100400001415151515161616161717171718181888
:10041000191919191A1A1A1A1B1B1B1B1C1C1C1D33
:100420001D1D1D1E1E1E1F1F1F1F202020212121DC
:100430002122222223232323242424252525262682
:100440002626272727282828292929292A2A2A2B26
:100450002B2B2C2C2C2C2D2D2D2E2E2E2F2F2F30C8
:10046000303030313131323211241FBECFEFD8E07D
:10047000DEBFCDBF11E0A0E0B1E0E0E9F8E002C0EE
:1004800005900D92AC36B107D9F711E0ACE6B1E0BA
:1004900001C01D92A138B107E1F70E9467030C94D7
:1004A00046040C9400001F920F920FB60F92112475
:1004B0008F939F93EF93FF9380916E019091C6006D
:1004C000E1E7F1E0E80FF11D908380916E018F5F0D
:1004D00080936E0181E080937001FF91EF919F9175
:1004E0008F910F900FBE0F901F9018951F920F9233
:1004F0000FB60F9211242F938F939F93EF93FF9337
:1005000080916C0190916D0120916A01820F911D83
:1005100090936D0180936C01E0916C01F0916D01FD
:10052000E859FF4FE4918E2F90E0909389008093DB
:10053000880080916C0190916D018F5F934020F055
:1005400010926D0110926C01FF91EF919F918F912C
:100550002F910F900FBE0F901F9018951092C5000D
:1005600081E88093C40088E98093C10086E080938D
:10057000C2000895982F8091C00085FFFCCF909312
:10058000C6000895AC0120E007C08091C00085FF3F
:10059000FCCFE093C6002F5FFA01E20FF11DE0816E
:1005A000EE2399F708958091C00087FFFCCF8091DA
:1005B000C6000895AC0120E00CC080916F01A80F27
:1005C000B11DAF58BE4F8C91E81711F080E008952F
:1005D0002F5FA22FB0E0FA01EA0FFB1FE081EE23AC
:1005E00061F780916F018F5F820F80936F0181E0CF
:1005F000089550E020E030E017C080916F01A80F0F
:10060000B11DAF58BE4F4C9140534A3060F4C90100
:1006100073E0880F991F7A95E1F7220F331F280F97
:10062000391F240F311D5F5FA52FB0E080916F014E
:10063000FD01E80FF11DEF58FE4F8081803251F02F
:1006400080916F01FD01E80FF11DEF58FE4F808191
:100650008B3399F680916F018F5F850F80936F01C7
:10066000C9010895882319F0439A429A089543983E
:10067000429808950F931F93CF93DF93EC01FB01F2
:1006800000E010E00E940C049F0136952795281782
:10069000390710F401E010E0CE01BF010E940C0404
:1006A000600F711FCB01DF91CF911F910F910895C2
:1006B000CB0162EC70E00E943A0380936A012091C2
:1006C0006A0182EC289F90011124C90108959F922C
:1006D000AF92BF92CF92DF92EF92FF920F931F9350
:1006E000DF93CF93CDB7DEB7A0970FB6F894DEBFF8
:1006F0000FBECDBF1092C50081E88093C40088E989
:100700008093C10086E08093C20084B98CE087B9F1
:1007100082E08AB984E690E0909387008093860017
:1007200082E88093800080E280936F0089E180936B
:100730008100789491E01BE3912E5E010894A11C46
:10074000B11CB1E1CB2ED12CCC0EDD1E0EC08091A0
:100750007001882351F010927001E0916E01F0E079
:10076000E059FE4F80818B3311F0992381F710926D
:100770006E0110926F0180E091E00E94DA028823FE
:1007800031F081E00E94320383E091E03BC084E1DC
:1007900091E00E94DA02882331F080E00E94320367
:1007A00088E191E02FC08AE291E00E94DA0288237A
:1007B00039F10E94F9028C010E94F902BC01C801C2
:1007C0000E9458037C01C801B5014AE050E00E9434
:1007D0002004C701B6014AE050E00E9420048FE2E5
:1007E00091E00E94C202C5010E94C2028EE391E024
:1007F0000E94C202C6010E94C20287E591E002C0C7
:100800008BE591E00E94C2028091C00085FFFCCF81
:100810009092C60091E09BCFAA1BBB1B51E107C081
:10082000AA1FBB1FA617B70710F0A61BB70B881F80
:10083000991F5A95A9F780959095BC01CD0108950F
:10084000FB019F01423074F0453264F4642F772736
:100850000E940C04805D8A330CF0895D8193CB018A
:100860000097A1F71082C9010C943604DC01FC0149
:10087000672F71917723E1F7329704C07C916D93D4
:1008800070836291AE17BF07C8F30895F894FFCF45
:100890006F6E00427574746F6E204C696768747374
:1008A000204F4E006F666600427574746F6E204C68
:1008B0006967687473204F464600746F6E65005018
:1008C0006C617920746F6E6520666F722000206DF8
:1008D0007320776974682061206672657175656E32
:1008E0006379206F66200020487A00556E6B6F7721
:0C08F0006E20636F6D6D616E640001008E
:00000001FF
