:100000000C9434040C9451040C9451040C94510439
:100010000C9451040C9451040C9451040C9451040C
:100020000C9451040C9451040C94A2040C945104AB
:100030000C9451040C9451040C947F040C945104BE
:100040000C9451040C9451040C9464040C945104C9
:100050000C9451040C9451040C9451040C945104CC
:100060000C9451040C945104323232323333333312
:10007000333334343434343434353535353535363A
:100080003636363636363737373737373838383802
:10009000383838393939393939393A3A3A3A3A3ACD
:1000A0003B3B3B3B3B3B3B3C3C3C3C3C3C3D3D3D94
:1000B0003D3D3D3D3E3E3E3E3E3E3E3F3F3F3F3F5F
:1000C0003F3F404040404040414141414141414229
:1000D00042424242424243434343434343444444F3
:1000E00044444444454545454545454646464646BF
:1000F000464647474747474747484848484848488B
:1001000048494949494949494A4A4A4A4A4A4A4B57
:100110004B4B4B4B4B4B4B4C4C4C4C4C4C4C4C4D25
:100120004D4D4D4D4D4D4E4E4E4E4E4E4E4E4F4FF3
:100130004F4F4F4F4F4F50505050505050505151C3
:100140005151515151515152525252525252525395
:100150005353535353535353545454545454545467
:10016000545555555555555555555656565656563A
:10017000565656575757575757575757575858580F
:1001800058585858585858595959595959595959E6
:10019000595A5A5A5A5A5A5A5A5A5A5A5B5B5B5BBC
:1001A0005B5B5B5B5B5B5B5B5C5C5C5C5C5C5C5C97
:1001B0005C5C5C5C5D5D5D5D5D5D5D5D5D5D5D5D73
:1001C0005E5E5E5E5E5E5E5E5E5E5E5E5E5E5F5F4D
:1001D0005F5F5F5F5F5F5F5F5F5F5F5F5F6060602C
:1001E000606060606060606060606060606061610D
:1001F00061616161616161616161616161616161EF
:1002000061626262626262626262626262626262CF
:1002100062626262626262626363636363636363B6
:10022000636363636363636363636363636363639E
:100230006363636363636363636364646464646488
:10024000646464646464646464646464646464646E
:10025000646464646464646464646464646464645E
:10026000646464646464646464646464646464644E
:10027000646464646464646464646464646464643E
:10028000646464646464646464646464646464642E
:100290006464646464646463636363636363636327
:1002A000636363636363636363636363636363631E
:1002B0006363636363636363636262626262626215
:1002C000626262626262626262626262626262620E
:1002D000616161616161616161616161616161610E
:1002E000616161606060606060606060606060600B
:1002F000606060605F5F5F5F5F5F5F5F5F5F5F5F0A
:100300005F5F5F5E5E5E5E5E5E5E5E5E5E5E5E5E0A
:100310005E5D5D5D5D5D5D5D5D5D5D5D5D5C5C5C0F
:100320005C5C5C5C5C5C5C5C5C5B5B5B5B5B5B5B14
:100330005B5B5B5B5B5A5A5A5A5A5A5A5A5A5A5A18
:100340005959595959595959595958585858585823
:10035000585858585757575757575757575756562B
:100360005656565656565655555555555555555536
:100370005454545454545454545353535353535344
:100380005353525252525252525251515151515151
:1003900051515150505050505050504F4F4F4F4F5F
:1003A0004F4F4F4E4E4E4E4E4E4E4E4D4D4D4D4D6F
:1003B0004D4D4C4C4C4C4C4C4C4C4B4B4B4B4B4B81
:1003C0004B4B4A4A4A4A4A4A4A4949494949494992
:1003D00048484848484848484747474747474746A6
:1003E00046464646464645454545454545444444BA
:1003F00044444444434343434343434242424242CE
:100400004242414141414141414040404040403FE2
:100410003F3F3F3F3F3F3E3E3E3E3E3E3E3D3D3DF9
:100420003D3D3D3D3C3C3C3C3C3C3B3B3B3B3B3B0E
:100430003B3A3A3A3A3A3A39393939393939383826
:10044000383838383837373737373736363636363C
:100450003636353535353535343434343434343353
:10046000333333333332323232323232313131316B
:100470003131303030303030302F2F2F2F2F2F2E82
:100480002E2E2E2E2E2E2D2D2D2D2D2D2C2C2C2C9A
:100490002C2C2C2B2B2B2B2B2B2B2A2A2A2A2A2AAF
:1004A00029292929292929282828282828272727C8
:1004B00027272727262626262626262525252525DD
:1004C00025252424242424242323232323232322F3
:1004D0002222222222222121212121212120202009
:1004E000202020201F1F1F1F1F1F1F1E1E1E1E1E1D
:1004F0001E1E1D1D1D1D1D1D1D1C1C1C1C1C1C1C31
:100500001C1B1B1B1B1B1B1B1A1A1A1A1A1A1A1943
:100510001919191919191918181818181818181755
:100520001717171717171616161616161616151567
:100530001515151515151414141414141414131377
:100540001313131313131312121212121212121185
:100550001111111111111111101010101010101093
:10056000100F0F0F0F0F0F0F0F0F0E0E0E0E0E0EA0
:100570000E0E0E0D0D0D0D0D0D0D0D0D0D0C0C0CAB
:100580000C0C0C0C0C0C0C0B0B0B0B0B0B0B0B0BB4
:100590000B0A0A0A0A0A0A0A0A0A0A0A09090909BE
:1005A00009090909090909090808080808080808C3
:1005B00008080808070707070707070707070707C7
:1005C00006060606060606060606060606060505CD
:1005D00005050505050505050505050505040404CE
:1005E00004040404040404040404040404040303CD
:1005F00003030303030303030303030303030303CB
:1006000003020202020202020202020202020202C9
:1006100002020202020202020101010101010101C2
:1006200001010101010101010101010101010101BA
:1006300001010101010101010101000000000000B0
:1006400000000000000000000000000000000000AA
:10065000000000000000000000000000000000009A
:10066000000000000000000000000000000000008A
:10067000000000000000000000000000000000007A
:10068000000000000000000000000000000000006A
:100690000000000000000001010101010101010151
:1006A000010101010101010101010101010101013A
:1006B0000101010101010101010202020202020223
:1006C000020202020202020202020202020202020A
:1006D00003030303030303030303030303030303EA
:1006E00003030304040404040404040404040404CD
:1006F00004040404050505050505050505050505AE
:10070000050505060606060606060606060606068C
:100710000607070707070707070707070708080867
:100720000808080808080808080909090909090942
:1007300009090909090A0A0A0A0A0A0A0A0A0A0A1E
:100740000B0B0B0B0B0B0B0B0B0B0C0C0C0C0C0CF3
:100750000C0C0C0C0D0D0D0D0D0D0D0D0D0D0E0ECB
:100760000E0E0E0E0E0E0E0F0F0F0F0F0F0F0F0FA0
:100770001010101010101010101111111111111172
:100780001111121212121212121213131313131345
:100790001313131414141414141414151515151517
:1007A00015151516161616161616161717171717E7
:1007B00017171818181818181818191919191919B5
:1007C00019191A1A1A1A1A1A1A1B1B1B1B1B1B1B84
:1007D0001C1C1C1C1C1C1C1C1D1D1D1D1D1D1D1E50
:1007E0001E1E1E1E1E1E1F1F1F1F1F1F1F2020201C
:1007F00020202020212121212121212222222222E8
:1008000022222323232323232324242424242425B2
:10081000252525252525262626262626262727277B
:100820002727272728282828282829292929292946
:10083000292A2A2A2A2A2A2B2B2B2B2B2B2B2C2C0E
:100840002C2C2C2C2C2D2D2D2D2D2D2E2E2E2E2ED8
:100850002E2E2F2F2F2F2F2F3030303030303031A1
:10086000313131313132323211241FBECFEFD8E075
:10087000DEBFCDBF12E0A0E0B1E0E0EAF1E102C0EE
:1008800005900D92A234B107D9F722E0A2E4B2E0BC
:1008900001C01D92A137B207E1F70E9438060C94FF
:1008A000CE080C940000439A429A0895219A10921F
:1008B0006D0210926E0210926F02109270020C94F0
:1008C00053045F98289A08958F938FB78F93EF936F
:1008D000FF938091C600E0914402F0E0EB5BFD4F96
:1008E0008083809144028F5F8093440281E08093F3
:1008F0004202FF91EF918F918FBF8F9118951F92B8
:100900001FB61F9211248F939F93AF93BF93809133
:100910006D0290916E02A0916F02B09170020196EB
:10092000A11DB11D80936D0290936E02A0936F0282
:10093000B0937002BF91AF919F918F911F901FBE96
:100940001F9018951F921FB61F9211242F938F93FB
:100950009F93EF93FF9320911001809165029091F6
:100960006602820F911D90936602809365028091CA
:100970006502909166028F3F974050F0809165022A
:10098000909166028F5F9740909366028093650214
:10099000E0916502F0916602E859FF4FE491F0E0C2
:1009A000F0938900E0938800FF91EF919F918F91E0
:1009B0002F911F901FBE1F9018951092C50081E8BF
:1009C0008093C40088E98093C10086E08093C200D0
:1009D00008959091C00095FFFCCF8093C6000895C4
:1009E0001F93CF93DF93EC0110E0FE01E10FF11DA7
:1009F0008081811104C0DF91CF911F9108950E94E1
:100A0000E9041F5FF2CFCF93DF93CDB7DEB76097D6
:100A10000FB6F894DEBF0FBECDBF4AE0BE016F5FD8
:100A20007F4F0E94A408CE0101960E94F0046096B8
:100A30000FB6F894DEBF0FBECDBFDF91CF91089502
:100A40008091C00087FFFCCF8091C6000895AC0163
:100A500020E0822F90E0FA01E80FF91F3081311178
:100A600008C0809143028F5F820F8093430281E030
:100A7000089560914302860F911DFC01EB5BFD4FD1
:100A80008081831302C02F5FE4CF80E0089560E08F
:100A900070E040E05AE0242F30E080914302F901F9
:100AA000E80FF11DEB5BFD4F8081803251F08091AA
:100AB0004302F901E80FF11DEB5BFD4F80818B33A1
:100AC00041F4909143029F5F940F90934302CB01B6
:100AD000089580914302280F311DF901EB5BFD4F12
:100AE000908190539A3040F4569F9001579F300D5B
:100AF0001124B901690F711D4F5FCDCF81110C9485
:100B000053044398429808959B010E9466073695C6
:100B1000279541E050E02817390710F040E050E0F9
:100B2000CA01860F971F0895CF93DF9300D000D09E
:100B3000CDB7DEB761E670E00E94660721E030E0E5
:100B4000C19710F420E030E0620F731F6093100132
:100B500080911001282F30E040E050E029833A8353
:100B60004B835C83CA01B9010E94A90720E030E5EC
:100B700043EC52E469837A838B839C8369817A8115
:100B80008B819C810E940F0869837A838B839C836D
:100B900069817A818B819C810E947A07CB010F90B9
:100BA0000F900F900F90DF91CF910895809367027F
:100BB00081110C945604219880E00C947E058111DB
:100BC0000C9461045F9A28980895CF9380916702EE
:100BD000882399F186B1C6B1C5FBCC27C0F984FF43
:100BE00002C0C11113C080916D0290916E02A0915C
:100BF0006F02B091700290936A028093690280E064
:100C00000E94D60581E0C827C093680240916D021A
:100C100050916E0260916F027091700280916B0230
:100C200090916C02A0E0B0E084179507A607B70783
:100C300020F480E0CF910C94D605CF9108958DE4F7
:100C400087BD82E084BD94E095BD80936E000895D9
:100C500084E690E0909387008093860082E88093FA
:100C6000800080E280936F0089E180938100089585
:100C7000CDB7DEB7A0970FB6F894DEBF0FBECDBFDD
:100C80000E94DD0483E084B98CE087B982E88AB9E8
:100C90000E941F060E942806789488E8C82E83E1E7
:100CA000D82E8E010F5F1F4FEE24E3940E94E505BE
:100CB000809142028823D1F310924202E0914402D3
:100CC000E150FF0BEB5BFD4F80818B3379F7E091B7
:100CD0004402E250FF0BEB5BFD4F80818A3331F71A
:100CE00010924402109243028CE191E00E94270589
:100CF000811139C089E491E00E942705882309F415
:100D00004BC00E944705B82EF92E0E9447050E944D
:100D10009405982EA92EB0926B02F0926C02E0928C
:100D200067020E9456044AE0BE016F5E7F4F8B2D22
:100D30009F2D0E94A4084AE0B801892D9A2D0E9497
:100D4000A4088EE491E00E94F004CE0141960E9436
:100D5000F0048DE591E00E94F004C8010E94F004C7
:100D600086E791E00AC083E291E00E94270588238C
:100D700069F00E94530486E291E00E94F0048AE345
:100D80000E94E9048BE30E94E90490CF80E00E9476
:100D90007E0587E391E0F1CF8AE791E00E94270585
:100DA000882389F081E891E00E942705882329F0B3
:100DB0000E94610487E891E0E0CF80E00E94DF05B7
:100DC0008BE991E0DACF8EEA91E00E942705882333
:100DD00009F479C081E891E00E942705F82E81117D
:100DE00009C083EB91E00E942705811103C088EBC5
:100DF00091E0C3CF0E9447055C018F2D0E94DF0563
:100E0000C5010E949405D0926C02C0926B024AE028
:100E1000B8010E94A40884EC91E00E94F0045801FB
:100E200081E191E0F11002C087E191E00E94F004BD
:100E30008DEC91E00E94F004C5010E94F00486EE62
:100E400091E00E94F0048BE30E94E90410926A0290
:100E500010926902E09267020E9456048091670234
:100E6000811116C040916D0250916E0260916F0227
:100E70007091700280916B0290916C02A0E0B0E0E2
:100E800084179507A607B70730F485E092E075CF81
:100E90000E94E505E3CF80916802882389F081E113
:100EA00091E00E94F00487E192E00E94F0048091BA
:100EB000690290916A020E9403058EE292E05DCF82
:100EC00087E191E0EECF83E392E057CFAA1BBB1BF3
:100ED00051E107C0AA1FBB1FA617B70710F0A61B3A
:100EE000B70B881F991F5A95A9F780959095BC015B
:100EF000CD0108950E94EE0788F09F5798F0B92F12
:100F00009927B751B0F0E1F0660F771F881F991F3E
:100F10001AF0BA95C9F714C0B13091F00E940808D0
:100F2000B1E008950C940808672F782F8827B85FE0
:100F300039F0B93FCCF3869577956795B395D9F796
:100F40003EF490958095709561957F4F8F4F9F4FA0
:100F50000895E89409C097FB3EF4909580957095AC
:100F600061957F4F8F4F9F4F9923A9F0F92F96E9F5
:100F7000BB279395F695879577956795B795F1116A
:100F8000F8CFFAF4BB0F11F460FF1BC06F5F7F4F07
:100F90008F4F9F4F16C0882311F096E911C0772319
:100FA00021F09EE8872F762F05C0662371F096E822
:100FB000862F70E060E02AF09A95660F771F881FF1
:100FC000DAF7880F9695879597F9089557FD905809
:100FD000440F551F59F05F3F71F04795880F97FBFD
:100FE000991F61F09F3F79F08795089512161306B7
:100FF0001406551FF2CF4695F1DF08C016161706E6
:101000001806991FF1CF869571056105089408951A
:10101000E894BB2766277727CB0197F908950E94AC
:1010200022080C9493080E94850838F00E948C08CE
:1010300020F0952311F00C947C080C948208112464
:101040000C9409080E94E60770F3959FC1F3950F71
:1010500050E0551F629FF001729FBB27F00DB11D3C
:10106000639FAA27F00DB11DAA1F649F6627B00DCC
:10107000A11D661F829F2227B00DA11D621F739FB5
:10108000B00DA11D621F839FA00D611D221F749FC3
:101090003327A00D611D231F849F600D211D822F0A
:1010A000762F6A2F11249F5750409AF0F1F0882331
:1010B0004AF0EE0FFF1FBB1F661F771F881F91505E
:1010C0005040A9F79E3F510580F00C947C080C9489
:1010D00009085F3FE4F3983ED4F3869577956795CA
:1010E000B795F795E7959F5FC1F7FE2B880F911D88
:1010F0009695879597F9089597F99F6780E870E02E
:1011000060E008959FEF80EC089500240A9416167D
:10111000170618060906089500240A9412161306E5
:10112000140605060895092E0394000C11F4882373
:1011300052F0BB0F40F4BF2B11F460FF04C06F5F8F
:101140007F4F8F4F9F4F0895BB27FB015527AA273D
:10115000880F991FAA1FA41710F0A41B8395505144
:10116000B9F7A05DAA3308F0A95DA193009779F7BC
:10117000B111B1931192CB010C94BE08DC01FC01BA
:10118000672F71917723E1F7329704C07C916D93BB
:1011900070836291AE17BF07C8F30895F894FFCF2C
:1011A0006400C800900120034006800C001910273D
:1011B000015249474854004C454654006C696768E1
:1011C0007473006F6E00427574746F6E204C6967A3
:1011D000687473204F4E00427574746F6E204C69B2
:1011E00067687473204F464600746F6E6500506CDC
:1011F000617920746F6E6520666F722000206D73B8
:1012000020776974682061206672657175656E6308
:1012100079206F66200020487A00736574656172DA
:10122000007269676874005475726E6564206F6E31
:1012300020524947485420656172005475726E65AA
:1012400064206F6E204C45465420656172007465C1
:101250007374006C65667400496E70757420457215
:10126000726F720054657374696E67200020656147
:1012700072207769746820612066726571756E638B
:1012800079206F66200020487A2E205761697469A2
:101290006E6720666F72207465737420696E707556
:1012A000742E2E2E004E6F20696E7075742072653C
:1012B0006365697665640020627574746F6E207072
:1012C0007265737365642061667465722000206DB9
:1012D000732E00556E6B6F776E20636F6D6D616E50
:0212E0006400A8
:00000001FF
