:100000000C9434040C9451040C9451040C94510439
:100010000C9451040C9451040C9451040C9451040C
:100020000C9451040C9451040C9497040C945104B6
:100030000C9451040C9451040C9474040C945104C9
:100040000C9451040C9451040C9459040C945104D4
:100050000C9451040C9451040C9451040C945104CC
:100060000C9451040C945104323232323333333312
:10007000333334343434343434353535353535363A
:100080003636363636363737373737373838383802
:10009000383838393939393939393A3A3A3A3A3ACD
:1000A0003B3B3B3B3B3B3B3C3C3C3C3C3C3D3D3D94
:1000B0003D3D3D3D3E3E3E3E3E3E3E3F3F3F3F3F5F
:1000C0003F3F404040404040414141414141414229
:1000D00042424242424243434343434343444444F3
:1000E00044444444454545454545454646464646BF
:1000F000464647474747474747484848484848488B
:1001000048494949494949494A4A4A4A4A4A4A4B57
:100110004B4B4B4B4B4B4B4C4C4C4C4C4C4C4C4D25
:100120004D4D4D4D4D4D4E4E4E4E4E4E4E4E4F4FF3
:100130004F4F4F4F4F4F50505050505050505151C3
:100140005151515151515152525252525252525395
:100150005353535353535353545454545454545467
:10016000545555555555555555555656565656563A
:10017000565656575757575757575757575858580F
:1001800058585858585858595959595959595959E6
:10019000595A5A5A5A5A5A5A5A5A5A5A5B5B5B5BBC
:1001A0005B5B5B5B5B5B5B5B5C5C5C5C5C5C5C5C97
:1001B0005C5C5C5C5D5D5D5D5D5D5D5D5D5D5D5D73
:1001C0005E5E5E5E5E5E5E5E5E5E5E5E5E5E5F5F4D
:1001D0005F5F5F5F5F5F5F5F5F5F5F5F5F6060602C
:1001E000606060606060606060606060606061610D
:1001F00061616161616161616161616161616161EF
:1002000061626262626262626262626262626262CF
:1002100062626262626262626363636363636363B6
:10022000636363636363636363636363636363639E
:100230006363636363636363636364646464646488
:10024000646464646464646464646464646464646E
:10025000646464646464646464646464646464645E
:10026000646464646464646464646464646464644E
:10027000646464646464646464646464646464643E
:10028000646464646464646464646464646464642E
:100290006464646464646463636363636363636327
:1002A000636363636363636363636363636363631E
:1002B0006363636363636363636262626262626215
:1002C000626262626262626262626262626262620E
:1002D000616161616161616161616161616161610E
:1002E000616161606060606060606060606060600B
:1002F000606060605F5F5F5F5F5F5F5F5F5F5F5F0A
:100300005F5F5F5E5E5E5E5E5E5E5E5E5E5E5E5E0A
:100310005E5D5D5D5D5D5D5D5D5D5D5D5D5C5C5C0F
:100320005C5C5C5C5C5C5C5C5C5B5B5B5B5B5B5B14
:100330005B5B5B5B5B5A5A5A5A5A5A5A5A5A5A5A18
:100340005959595959595959595958585858585823
:10035000585858585757575757575757575756562B
:100360005656565656565655555555555555555536
:100370005454545454545454545353535353535344
:100380005353525252525252525251515151515151
:1003900051515150505050505050504F4F4F4F4F5F
:1003A0004F4F4F4E4E4E4E4E4E4E4E4D4D4D4D4D6F
:1003B0004D4D4C4C4C4C4C4C4C4C4B4B4B4B4B4B81
:1003C0004B4B4A4A4A4A4A4A4A4949494949494992
:1003D00048484848484848484747474747474746A6
:1003E00046464646464645454545454545444444BA
:1003F00044444444434343434343434242424242CE
:100400004242414141414141414040404040403FE2
:100410003F3F3F3F3F3F3E3E3E3E3E3E3E3D3D3DF9
:100420003D3D3D3D3C3C3C3C3C3C3B3B3B3B3B3B0E
:100430003B3A3A3A3A3A3A39393939393939383826
:10044000383838383837373737373736363636363C
:100450003636353535353535343434343434343353
:10046000333333333332323232323232313131316B
:100470003131303030303030302F2F2F2F2F2F2E82
:100480002E2E2E2E2E2E2D2D2D2D2D2D2C2C2C2C9A
:100490002C2C2C2B2B2B2B2B2B2B2A2A2A2A2A2AAF
:1004A00029292929292929282828282828272727C8
:1004B00027272727262626262626262525252525DD
:1004C00025252424242424242323232323232322F3
:1004D0002222222222222121212121212120202009
:1004E000202020201F1F1F1F1F1F1F1E1E1E1E1E1D
:1004F0001E1E1D1D1D1D1D1D1D1C1C1C1C1C1C1C31
:100500001C1B1B1B1B1B1B1B1A1A1A1A1A1A1A1943
:100510001919191919191918181818181818181755
:100520001717171717171616161616161616151567
:100530001515151515151414141414141414131377
:100540001313131313131312121212121212121185
:100550001111111111111111101010101010101093
:10056000100F0F0F0F0F0F0F0F0F0E0E0E0E0E0EA0
:100570000E0E0E0D0D0D0D0D0D0D0D0D0D0C0C0CAB
:100580000C0C0C0C0C0C0C0B0B0B0B0B0B0B0B0BB4
:100590000B0A0A0A0A0A0A0A0A0A0A0A09090909BE
:1005A00009090909090909090808080808080808C3
:1005B00008080808070707070707070707070707C7
:1005C00006060606060606060606060606060505CD
:1005D00005050505050505050505050505040404CE
:1005E00004040404040404040404040404040303CD
:1005F00003030303030303030303030303030303CB
:1006000003020202020202020202020202020202C9
:1006100002020202020202020101010101010101C2
:1006200001010101010101010101010101010101BA
:1006300001010101010101010101000000000000B0
:1006400000000000000000000000000000000000AA
:10065000000000000000000000000000000000009A
:10066000000000000000000000000000000000008A
:10067000000000000000000000000000000000007A
:10068000000000000000000000000000000000006A
:100690000000000000000001010101010101010151
:1006A000010101010101010101010101010101013A
:1006B0000101010101010101010202020202020223
:1006C000020202020202020202020202020202020A
:1006D00003030303030303030303030303030303EA
:1006E00003030304040404040404040404040404CD
:1006F00004040404050505050505050505050505AE
:10070000050505060606060606060606060606068C
:100710000607070707070707070707070708080867
:100720000808080808080808080909090909090942
:1007300009090909090A0A0A0A0A0A0A0A0A0A0A1E
:100740000B0B0B0B0B0B0B0B0B0B0C0C0C0C0C0CF3
:100750000C0C0C0C0D0D0D0D0D0D0D0D0D0D0E0ECB
:100760000E0E0E0E0E0E0E0F0F0F0F0F0F0F0F0FA0
:100770001010101010101010101111111111111172
:100780001111121212121212121213131313131345
:100790001313131414141414141414151515151517
:1007A00015151516161616161616161717171717E7
:1007B00017171818181818181818191919191919B5
:1007C00019191A1A1A1A1A1A1A1B1B1B1B1B1B1B84
:1007D0001C1C1C1C1C1C1C1C1D1D1D1D1D1D1D1E50
:1007E0001E1E1E1E1E1E1F1F1F1F1F1F1F2020201C
:1007F00020202020212121212121212222222222E8
:1008000022222323232323232324242424242425B2
:10081000252525252525262626262626262727277B
:100820002727272728282828282829292929292946
:10083000292A2A2A2A2A2A2B2B2B2B2B2B2B2C2C0E
:100840002C2C2C2C2C2D2D2D2D2D2D2E2E2E2E2ED8
:100850002E2E2F2F2F2F2F2F3030303030303031A1
:10086000313131313132323211241FBECFEFD8E075
:10087000DEBFCDBF11E0A0E0B1E0E0E4FDE002C0EA
:1008800005900D92AE36B107D9F721E0AEE6B1E0A2
:1008900001C01D92AC38B207E1F70E94D7050C9455
:1008A0009E060C940000439A429A0895219A229A37
:1008B00008958F938FB78F93EF93FF938091C60026
:1008C000E0917001F0E0EF58FE4F8083809170015D
:1008D0008F5F8093700181E080936E01FF91EF91B3
:1008E0008F918FBF8F9118951F921FB61F92112461
:1008F0008F939F93AF93BF938091880190918901CB
:10090000A0918A01B0918B010196A11DB11D809328
:10091000880190938901A0938A01B0938B01BF91C4
:10092000AF919F918F911F901FBE1F9018951F929E
:100930001FB61F9211242F938F939F93EF93FF93D2
:10094000209100018091810190918201820F911D7F
:100950009093820180938101809181019091820125
:100960008F3F974050F080918101909182018F5F7D
:1009700097409093820180938101E0918101F091F1
:100980008201E859FF4FE491F0E0F0938900E09391
:100990008800FF91EF919F918F912F911F901FBE23
:1009A0001F9018951092C50081E88093C40088E9D3
:1009B0008093C10086E08093C20008959091C000AA
:1009C00095FFFCCF8093C60008951F93CF93DF93CC
:1009D000EC0110E0FE01E10FF11D8081811104C0E6
:1009E000DF91CF911F9108950E94DE041F5FF2CF27
:1009F0008091C00087FFFCCF8091C6000895AC01B4
:100A000020E0822F90E0FA01E80FF91F30813111C8
:100A100008C080916F018F5F820F80936F0181E02A
:100A2000089560916F01860F911DFC01EF58FE4FF4
:100A30008081831302C02F5FE4CF80E0089560E0DF
:100A400070E040E05AE0242F30E080916F01F9011E
:100A5000E80FF11DEF58FE4F8081803251F08091F8
:100A60006F01F901E80FF11DEF58FE4F80818B33C4
:100A700041F490916F019F5F940F90936F01CB01B0
:100A8000089580916F01280F311DF901EF58FE4F35
:100A9000908190539A3040F4569F9001579F300DAB
:100AA0001124B901690F711D4F5FCDCF81110C94D5
:100AB00053044398429808959B010E94600636951E
:100AC000279541E050E02817390710F040E050E04A
:100AD000CA01860F971F089561E670E00E946006C4
:100AE00021E030E0C19710F420E030E0620F731F86
:100AF000609300018091000121E6829FC0011124D2
:100B0000089581110C945604219822980895CF934A
:100B100086B1C6B1C5FBCC27C0F984FF02C0C111A4
:100B200013C080E00E948105809188019091890125
:100B3000A0918A01B0918B019093850180938401EB
:100B400081E0C827C09383014091880150918901B9
:100B500060918A0170918B0180918601909187014B
:100B6000A0E0B0E084179507A607B70720F480E05F
:100B7000CF910C948105CF91089508958DE487BDA0
:100B800082E084BD94E095BD80936E00089584E674
:100B900090E0909387008093860082E880938000A5
:100BA00080E280936F0089E1809381000895CDB742
:100BB000DEB7A0970FB6F894DEBF0FBECDBF0E9480
:100BC000D20486E084B98CE087B982E08AB90E94B9
:100BD000BE050E94C70578940E94870580916E012A
:100BE0008823D1F30E94530410926E01E0917001AA
:100BF000E150FF0BEF58FE4F80818B3369F7109265
:100C0000700110926F0181E091E00E94FF04811158
:100C10003EC08EE291E00E94FF04882309F44DC09B
:100C20000E941F058C010E941F050E946C057C011B
:100C30000E94560400938601109387011092880148
:100C40001092890110928A0110928B014AE0BE0134
:100C50006F5E7F4FC8010E9474064AE0BE016F5F5D
:100C60007F4FC7010E94740683E391E00E94E50470
:100C7000CE0141960E94E50482E491E00E94E504E1
:100C8000CE0101960E94E5048BE591E00AC088E060
:100C900091E00E94FF04882351F00E9453048BE0EE
:100CA00091E00E94E5048BE30E94DE0495CF80E092
:100CB0000E9456058CE191E0F4CF8FE591E0F1CFF1
:100CC000AA1BBB1B51E107C0AA1FBB1FA617B70772
:100CD00010F0A61BB70B881F991F5A95A9F780958E
:100CE0009095BC01CD010895BB27FB015527AA278C
:100CF000880F991FAA1FA41710F0A41B83955051A9
:100D0000B9F7A05DAA3308F0A95DA193009779F720
:100D1000B111B1931192CB010C948E06DC01FC0150
:100D2000672F71917723E1F7329704C07C916D931F
:100D300070836291AE17BF07C8F30895F894FFCF90
:100D4000016C6967687473006F6E00427574746F2C
:100D50006E204C6967687473204F4E00427574743E
:100D60006F6E204C6967687473204F464600746F3D
:100D70006E6500506C617920746F6E6520666F72CD
:100D80002000206D73207769746820612066726589
:100D90007175656E6379206F66200020487A005572
:0E0DA0006E6B6F776E20636F6D6D616E640019
:00000001FF
