:1000000019C033C032C031C030C02FC02EC02DC087
:100010002CC02BC02AC029C028C027C026C025C09C
:1000200024C023C022C021C020C01FC01EC01DC0CC
:100030001CC01BC011241FBECFEFD2E0DEBFCDBF5E
:1000400011E0A0E0B1E0EEEEF1E002C005900D920B
:10005000AA30B107D9F721E0AAE0B1E001C01D92B2
:10006000AE30B207E1F720D0C0C0CACFCF92DF9246
:10007000EF92FF92CF93DF93CAE0D1E02AE0C22E45
:10008000D12CE12CF12CA70196018DD06993B901F7
:10009000CA0121E0CE30D207B1F7DF91CF91FF90B6
:1000A000EF90DF90CF900895CDB7DEB72E970FB6C3
:1000B000F894DEBF0FBECDBF8FEF84B98CE387B954
:1000C0001E8680E019821A821B821C821D86BB2438
:1000D000B39494E6C92ED12CE12CF12C01E010E070
:1000E000AFE0B7E21197F1F700C00000309B05C008
:1000F000811103C0BE85BB25BE87319B2BC060E04C
:1001000070E0CB01B3DFEE85E11148C085E090E0FF
:10011000A0E0B0E089839A83AB83BC839D859F5F19
:1001200093709D87892F90E09C012E5F3F4FD801EF
:1001300002C0AA0FBB1F2A95E2F7A8B9865F9E4F9F
:10014000DC01EC91F0E0E050FF4F808185B986B191
:100150008170C6CF9E859111E1CF89819A81AB8153
:10016000BC810596A11DB11D89839A83AB83BC8395
:10017000BC01CD01A701960116D02D833E834F838C
:10018000588769877A878B879C87653071058105D9
:10019000910520F6CA01B90169DFC0CF19821A8220
:1001A0001B821C82BBCFA1E21A2EAA1BBB1BFD0126
:1001B0000DC0AA1FBB1FEE1FFF1FA217B307E40746
:1001C000F50720F0A21BB30BE40BF50B661F771F9E
:1001D000881F991F1A9469F760957095809590957E
:0E01E0009B01AC01BD01CF010895F894FFCF43
:0A01EE00C0F9A4B0999282F8809045
:00000001FF
